:100000000C94B1000C94CE000C94CE000C94CE0055
:100010000C94CE000C94CE000C94CE000C94CE0028
:100020000C94CE000C94CE000C94CE000C941301D2
:100030000C94CE000C94CE000C9422010C94CE00B3
:100040000C94CE000C94CE000C94CE000C94CE00F8
:100050000C94CE000C94CE000C94CE000C94CE00E8
:100060000C94CE000C94CE0000407A10F35A00A0FD
:10007000724E18090010A5D4E80000E87648170071
:1000800000E40B54020000CA9A3B000000E1F505B1
:10009000000080969800000040420F000000A086FB
:1000A00001000000102700000000E803000000002D
:1000B0006400000000000A000000000001000000D1
:1000C00000002C76D888DC674F0823DFC1DFAE59EB
:1000D000E1B1B796E5E3E453C63AE651997696E87E
:1000E000E6C28426EB898C9B62ED407C6FFCEFBC02
:1000F0009C9F40F2BAA56FA5F490055A2AF75C932D
:100100006B6CF9676DC11BFCE0E40D47FEF520E662
:10011000B500D0ED902E0300943577050080841E45
:10012000080000204E0A000000C80C333333330FA0
:10013000986E12831141EF8D2114893BE65516CF3D
:10014000FEE6DB18D1844B381BF77C1D901DA4BB49
:10015000E424203284725E228100C9F124ECA1E5FE
:100160003D2711241FBECFEFD8E0DEBFCDBF11E089
:10017000A0E0B1E0E8EFF0E102C005900D92A831F7
:10018000B107D9F721E0A8E1B1E001C01D92AE317D
:10019000B207E1F70E9433010C947A080C94000036
:1001A0008093BB0084E88093BC008091BC0087FFF3
:1001B000FCCF8091B900887F883221F0803321F014
:1001C00082E0089580E0089581E0089584E98093B5
:1001D000BC008091BC0084FDFCCF08951F93CF9399
:1001E000DF93C4EAD0ED14E8C093BC008091BC005A
:1001F00087FFFCCF8091B900887F8830A9F7D09322
:10020000BB001093BC008091BC0087FFFCCF8091A5
:10021000B900887F883119F00E94E600E5CFDF91B0
:10022000CF911F9108951F920F920FB60F92112434
:100230008F9381E080931C018F910F900FBE0F90E0
:100240001F9018951F920F920FB60F9211248F9343
:10025000F89481E080931D0178948F910F900FBEE8
:100260000F901F901895CF93DF93CDB7DEB7AD9762
:100270000FB6F894DEBF0FBECDBF1092B9008FEF5E
:100280008093B8008BE792E90197F1F700C0000076
:100290000E94EE0089E10E94D00087E00E94D00019
:1002A0000E94E6000E94EE008BE60E94D00081E0F2
:1002B0000E94D0000E94E6000E94EE008AE10E94A7
:1002C000D00080E00E94D0000E94E6000E94EE0074
:1002D0008BE10E94D00088E10E94D0000E94E600DD
:1002E0000E94EE0088E30E94D00081E00E94D000CE
:1002F0000E94E6008091C10088618093C1008091D6
:10030000C20086608093C2008CE08093C40010928B
:10031000C5008FE0E9E0F1E0DE01559601900D9215
:100320008A95E1F7FE01759681918111B4C014BCE4
:1003300098E095BD8CE887BD85B5846085BD8091CA
:100340006E00826080936E00109280009093810016
:1003500086E990E0909389008093880080918100E5
:1003600084608093810080916F00826080936F0031
:10037000789494EA892E24EC922E31ED732E44E881
:10038000642E7E0194E2E90EF11C50E0C52E51E08E
:10039000D52ECE0101965C0180911D01882309F4C0
:1003A00046C010921D010E94EE008BE30E94D00017
:1003B0008092BC008091BC0087FFFCCF8091B90087
:1003C000887F803151F47092BB006092BC008091B4
:1003D000BC0087FFFCCF8091B9009092BC00809157
:1003E000BC0087FFFCCF6091BB00062E000C770B92
:1003F000962F88279092BC002091BC0027FFFCCF4D
:100400006091BB00062E000C770B682B792B072E12
:10041000000C880B990B0E94E00460931801709304
:10042000190180931A0190931B010E94E6008091AC
:100430001C01882309F4B0CF10921C0160911801AF
:100440007091190180911A0190911B0120E030E018
:1004500040E858E30E941B05870122E043E00E9428
:100460005202FF92EF92DF92CF92BF92AF920E9420
:10047000D905F5010F900F900F900F900F900F90EE
:100480008191882309F488CF8093C6008091C000B1
:1004900085FFFCCFF5CF8093C6008091C00085FF1B
:1004A000FCCF42CFEF920F931F93CF93DF93E801DE
:1004B00034E047FD34E1042E000C550B57FF03C018
:1004C000519541955109E32E022F242FAE010E9430
:1004D0007002CE01DF91CF911F910F91EF9008959F
:1004E000A9E0B0E0E6E7F2E00C94AD046A01F22E78
:1004F000B02E102FFBE3AF2EA01608F41BE31F5FF6
:10050000012F27E0AE014F5F5F4F0E94CF03BC0178
:100510008981982F9970913009F43FC09BE2E1FCEA
:1005200004C09E2D9170E0FC3AC05E2D5071E82F02
:10053000E87083FF46C084E0911101C083E0EF2D95
:10054000E81B8F1508F0E0E0D6018E2F20E255233E
:1005500051F1992329F0D6019C93C60101966C01B3
:1005600096012D5F3F4FE2FE24C08EE4D6018C93AE
:1005700091E411969C93119712968C93D9018E2F2A
:1005800090E281111BC0E20FF32FF11D10828EEF5C
:100590009FEF2996ECE00C94C9049DE2C6CF90E24F
:1005A000C4CF2D9381508111FCCFCE0ED11CE0E041
:1005B000D0CF8EE6D6018C9391E6DBCF9D93815010
:1005C000E0CF482F447082FF3DC084E0911101C00C
:1005D00083E08F1510F4EF2DE81BD6018E2F20E25B
:1005E000552309F1992329F0D6019C93C601019660
:1005F0006C0196012D5F3F4FE2FE1BC089E4D601DE
:100600008C938EE411968C93119786E412968C93BA
:10061000D9018E2F90E2882309F4B5CF9D938150A4
:10062000FACF2D9381508111FCCFCE0ED11CE0E08A
:10063000D9CF89E6D6018C938EE611968C931197CB
:1006400086E6E4CF9B0177FF02C030E020E0A1E026
:10065000B0E0911102C0B0E0A0E0F9013196AE0F18
:10066000BF1F8B2C912CBB2009F461C05401EFEF0C
:10067000AE1ABE0AAA0DBB1DFA161B0619F014F01D
:100680004F2D4A1B511188C0E3FC59C07601A42F9D
:10069000B0E2A1114FC0C40ED11C992309F45BC074
:1006A00040E0D6011196F60190836D01552309F4BF
:1006B00048C0012F060F9A81582F507184FF03C044
:1006C000913309F4015010160CF047C0093008F0BE
:1006D00008E0EEE2FE2E5B01A01AB10885019194BC
:1006E000819491082F3F320729F4D601FC92F6013C
:1006F00031966F016217730794F1021713077CF5A7
:10070000DB01A21BB30BAA24A394B12CAC0EBD1E1B
:10071000AA0DBB1D11968C9121503109D60111965D
:1007200028153905F4F0F60180836D01DBCFB12C7B
:10073000A12CA0CFF701B1937F01A150AACF9111B5
:10074000B0CFD601942F50E302C05D939150911128
:10075000FCCFC40ED11C40E0ACCF01E0BACF80E3A7
:10076000DBCF6217730731F4963388F4953311F4B5
:10077000552369F0F6018083FD01842F90E28111F9
:1007800008C0A40FB11D1C9290E080E002CF81E36D
:10079000F1CF91938150F3CF911183CF8ACF28303D
:1007A00008F027E03327DA01990F311D87FD9160AA
:1007B00000966105710539F432602E5F3D9330E398
:1007C0002A95E1F708959F3F30F080387105610563
:1007D00009F03C5F3C5F3D93913008F08068911DCB
:1007E000DF93CF931F930F93FF92EF92192F987F70
:1007F0009695E92F96959695E90FFF27EE53FF4FB3
:1008000099273327EE24FF24A701E70105900894D8
:10081000079428F4360FE71EF81E491F511D660F76
:10082000771F881F991F0694A1F70590079428F455
:10083000E70EF81E491F561FC11D770F881F991F0D
:10084000661F0694A1F70590079428F4F80E491F37
:10085000561FC71FD11D880F991F661F771F06944B
:10086000A1F70590079420F4490F561FC71FD81F02
:10087000990F661F771F881F0694A9F7849110951A
:10088000177041F0D695C79557954795F794E7941B
:100890001A95C1F7E8E6F0E0689415901591359146
:1008A0006591959105907FE27395E118F10A430BEC
:1008B000560BC90BD009C0F7E10CF11E431F561FA0
:1008C000C91FD01D7EF4703311F48A95E6CFE894E9
:1008D000015030F0080F0AF40027021708F4202F07
:1008E0002395022F7A3328F079E37D932A95E9F74F
:1008F00010C07D932A9589F606949795679537954C
:1009000017951794E118F10A430B560BC90BD00940
:1009100098F023957E9173957A3308F070E37C9379
:100920002013B8F77E9170617D9330F0839571E369
:100930007D9370E32A95E1F71124EF90FF900F91DA
:100940001F91CF91DF91992787FD909508952F9260
:100950003F924F925F926F927F928F929F92AF924F
:10096000BF92CF92DF92EF92FF920F931F93CF939C
:10097000DF93CDB7DEB7CA1BDB0B0FB6F894DEBF33
:100980000FBECDBF09942A88398848885F846E8459
:100990007D848C849B84AA84B984C884DF80EE80A3
:1009A000FD800C811B81AA81B981CE0FD11D0FB6AC
:1009B000F894DEBF0FBECDBFED010895E89409C0E5
:1009C00097FB3EF490958095709561957F4F8F4F82
:1009D0009F4F9923A9F0F92F96E9BB279395F69598
:1009E000879577956795B795F111F8CFFAF4BB0F16
:1009F00011F460FF1BC06F5F7F4F8F4F9F4F16C07A
:100A0000882311F096E911C0772321F09EE8872F03
:100A1000762F05C0662371F096E8862F70E060E0BF
:100A20002AF09A95660F771F881FDAF7880F969538
:100A3000879597F908950E942E050C949F050E94B2
:100A4000910538F00E94980520F0952311F00C9440
:100A500088050C948E0511240C94D3050E94B005D2
:100A600070F3959FC1F3950F50E0551F629FF00101
:100A7000729FBB27F00DB11D639FAA27F00DB11D1A
:100A8000AA1F649F6627B00DA11D661F829F2227A3
:100A9000B00DA11D621F739FB00DA11D621F839F2A
:100AA000A00D611D221F749F3327A00D611D231F00
:100AB000849F600D211D822F762F6A2F11249F574E
:100AC00050409AF0F1F088234AF0EE0FFF1FBB1F51
:100AD000661F771F881F91505040A9F79E3F510510
:100AE00080F00C9488050C94D3055F3FE4F3983EA6
:100AF000D4F3869577956795B795F795E7959F5FBA
:100B0000C1F7FE2B880F911D9695879597F908954B
:100B100097F99F6780E870E060E008959FEF80ECB0
:100B2000089500240A941616170618060906089553
:100B300000240A9412161306140605060895092EB9
:100B40000394000C11F4882352F0BB0F40F4BF2B28
:100B500011F460FF04C06F5F7F4F8F4F9F4F089568
:100B600057FD9058440F551F59F05F3F71F047955E
:100B7000880F97FB991F61F09F3F79F08795089543
:100B8000121613061406551FF2CF4695F1DF08C062
:100B9000161617061806991FF1CF8695710561057F
:100BA00008940895E894BB2766277727CB0197F927
:100BB0000895AEE0B0E0EFEDF5E00C94B5040D89DA
:100BC0001E8986E08C831A8309838FEF9FE79E83BB
:100BD0008D83AE01475E5F4F6F89788DCE010196A0
:100BE0000E94FC052F813885020F131FF801108227
:100BF0002E96E4E00C94D104ABE0B0E0E2E0F6E045
:100C00000C94A7047C013B018A01FC011782168227
:100C1000838181FFC8C1CE0101965C01F7019381F8
:100C2000F30193FD859193FF81913F01882309F49E
:100C300053C1853239F493FD859193FF81913F0132
:100C4000853229F4B70190E00E94EC07E7CF912CA0
:100C5000212C312CFFE1F31538F08B3211F190F497
:100C6000803209F1833229F137FC3CC020ED280F96
:100C70002A3050F536FE20C08AE0989E200D1124BF
:100C8000922E06C08D3291F0803371F7689430F85F
:100C9000F30193FD859193FF81913F018111DACF9B
:100CA00021C0689431F8689432F8F2CF689433F830
:100CB000EFCF689434F8ECCFEAE02E9E200D11249B
:100CC000222E689435F8E4CF8E3229F436FC04C124
:100CD000689436F8DDCF8C3619F4689437F8D8CF9D
:100CE0008836B1F2982F9F7D95549330E0F083368B
:100CF000A1F18337C1F1833509F063C02801F2E027
:100D00004F0E511CF801C080D180692D70E036FC77
:100D100002C06FEF7FEFC6010E94D6074C016894B6
:100D200037F882010AC00C5F1F4FFFE3F983882464
:100D30008394912C6501E89437F833FE2DC0522C32
:100D40008114910471F5552009F468CFB70180E250
:100D500090E00E94EC075A94F6CFF80180818983D5
:100D60000E5F1F4FE4CF2801F2E04F0E511CF80137
:100D7000C080D180692D70E036FC02C06FEF7FEF3C
:100D8000C6010E94E1074C018201D5CFB70180E284
:100D900090E00E94EC072A942814190409F0B0F797
:100DA000CECFF60137FC859137FE81916F01B701F7
:100DB00090E00E94EC0751105A94F1E08F1A9108CC
:100DC000BFCF843619F0893609F077C0F80137FEB5
:100DD0006BC060817181828193810C5F1F4FF32D05
:100DE000FF763F2E97FF09C090958095709561958D
:100DF0007F4F8F4F9F4F689437F82AE030E0A5016E
:100E00000E941C08C82ECA188C2C432C36FE0CC01D
:100E1000E89440F8C91440F434FE05C032FC03C025
:100E2000F32DFE7E4F2E892C44FE95C0FE01EC0D65
:100E3000F11D8081803309F087C0242D297E422E48
:100E4000842D8870582E43FC95C040FE8FC09C2C8A
:100E5000821418F42C0C922C981844FE91C0B701FF
:100E600080E390E00E94EC0742FE09C088E790E032
:100E700041FE02C088E590E0B7010E94EC07C9146A
:100E800008F48AC0CA94D12C9FEFC91AD90ACA0C97
:100E9000DB1CF60182916F01B70190E00E94EC0724
:100EA000AC14BD04B1F74FCF60817181072E000CE7
:100EB000880B990B0E5F1F4F92CFD32CE894D4F878
:100EC0002AE030E0853739F1232D297FD22E8F3665
:100ED00001F148F48835A9F0F701868197812B96B6
:100EE000E2E10C94C304803749F08837A9F7D4FEB7
:100EF00002C06894D2F820E130E00DC06894D4F8C4
:100F0000F6CF34FE03C0822F8660D82E20E132E077
:100F100002C028E030E0F801D7FE0FC06081718187
:100F2000828193810C5F1F4FA5010E941C08C82E6F
:100F3000CA183D2CE89437F867CF6081718190E042
:100F400080E00E5F1F4FF0CF42FC02C0839478CF49
:100F50008394839475CF842D867809F471CFF6CF6E
:100F6000B70180E290E00E94EC0783948214C0F302
:100F7000512C73CF522C5818821408F46ECFF8CF2E
:100F8000842D867809F47BCF8BE241FE80E247FC1A
:100F90008DE2B70190E071CFB70180E390E00E944D
:100FA000EC079A946CCF8FEF9FEF99CFFC010590DF
:100FB000615070400110D8F7809590958E0F9F1F5B
:100FC0000895FC016150704001900110D8F78095A0
:100FD00090958E0F9F1F08950F931F93CF93DF93CC
:100FE000182F092FEB018B8181FD09C01FEF0FEF37
:100FF000812F902FDF91CF911F910F91089582FF44
:1010000014C02E813F818C819D81281739073CF4C3
:10101000E881F981CF0101969983888310838E81BD
:101020009F8101969F838E83E3CFE885F985812F89
:101030000995892BA1F3DACFFA01AA27283051F1BB
:10104000203181F1E8946F936E7F6E5F7F4F8F4FF9
:101050009F4FAF4FB1E03ED0B4E03CD0670F781F58
:10106000891F9A1FA11D680F791F8A1F911DA11D3D
:101070006A0F711D811D911DA11D20D009F4689476
:101080003F912AE0269F11243019305D3193DEF61E
:10109000CF010895462F4770405D4193B3E00FD0D4
:1010A000C9F7F6CF462F4F70405D4A3318F0495DBF
:1010B00031FD4052419302D0A9F7EACFB4E0A695A2
:1010C0009795879577956795BA95C9F700976105C4
:1010D000710508959B01AC010A2E0694579547951A
:1010E00037952795BA95C9F7620F731F841F951F0F
:0810F000A01D0895F894FFCF44
:1010F8002058203D2025730A00696E697420636FAB
:081108006D706C6574650A004E
:00000001FF
