:100000000C94B1000C94CE000C94CE000C94CE0055
:100010000C94CE000C94CE000C94CE000C94CE0028
:100020000C94CE000C94CE000C94CE000C94CE0018
:100030000C94CE000C94CE000C941F010C94CE00B6
:100040000C94CE000C94CE000C94CE000C94CE00F8
:100050000C94CE000C94CE000C94CE000C94CE00E8
:100060000C94CE000C94CE0000407A10F35A00A0FD
:10007000724E18090010A5D4E80000E87648170071
:1000800000E40B54020000CA9A3B000000E1F505B1
:10009000000080969800000040420F000000A086FB
:1000A00001000000102700000000E803000000002D
:1000B0006400000000000A000000000001000000D1
:1000C00000002C76D888DC674F0823DFC1DFAE59EB
:1000D000E1B1B796E5E3E453C63AE651997696E87E
:1000E000E6C28426EB898C9B62ED407C6FFCEFBC02
:1000F0009C9F40F2BAA56FA5F490055A2AF75C932D
:100100006B6CF9676DC11BFCE0E40D47FEF520E662
:10011000B500D0ED902E0300943577050080841E45
:10012000080000204E0A000000C80C333333330FA0
:10013000986E12831141EF8D2114893BE65516CF3D
:10014000FEE6DB18D1844B381BF77C1D901DA4BB49
:10015000E424203284725E228100C9F124ECA1E5FE
:100160003D2711241FBECFEFD8E0DEBFCDBF11E089
:10017000A0E0B1E0E4EEF6E102C005900D92A438F3
:10018000B107D9F721E0A4E8B1E001C01D92A03A7F
:10019000B207E1F70E943A020C94700B0C94000035
:1001A000FC019191911101C008959093C600809136
:1001B000C00085FFFCCFF5CF8093BB0084E880931F
:1001C000BC008091BC0087FFFCCF8091B900887F84
:1001D000883221F0803321F082E0089580E0089594
:1001E00081E0089584E98093BC008091BC0084FD87
:1001F000FCCF08951F93CF93DF93C4EAD0ED14E8AA
:10020000C093BC008091BC0087FFFCCF8091B900F7
:10021000887F8830A9F7D093BB001093BC008091F1
:10022000BC0087FFFCCF8091B900887F883119F02E
:100230000E94F200E5CFDF91CF911F9108951F92A8
:100240000F920FB60F9211244F925F926F927F928E
:100250008F929F92AF92BF92CF92DF92EF92FF92D6
:100260002F933F934F935F936F937F938F939F93BE
:10027000AF93BF93EF93FF93F8940E94FA008BE340
:100280000E94DC0084EA8093BC008091BC0087FF60
:10029000FCCF8091B900887F803161F481ED80933B
:1002A000BB0084E88093BC008091BC0087FFFCCF3A
:1002B0008091B90084EC8093BC008091BC0087FFE2
:1002C000FCCF6091BB00062E000C770B962F882781
:1002D00024EC2093BC002091BC0027FFFCCF609150
:1002E000BB00062E000C770B682B792B072E000C19
:1002F000880B990B0E94AD07609398017093990148
:1003000080939A0190939B010E94F200C090980103
:10031000D0909901E0909A01F0909B01C0929401D5
:10032000D0929501E0929601F09297012FE832EC7D
:1003300045EF5CE3C701B6010E946208209190017D
:100340003091910140919201509193010E94920647
:100350002B013C01409290015092910160929201D8
:1003600070929301209188013091890140918A0116
:1003700050918B01C701B6010E9491062FE832EC23
:1003800045EF5CE30E9403074B015C0180928C0106
:1003900090928D01A0928E01B0928F01C09288013F
:1003A000D0928901E0928A01F0928B01A30192011F
:1003B000C701B6010E949206A50194010E9492060F
:1003C0006B017C0120E03EE34CE956E40E945D08AD
:1003D00018160CF442C0C0929C01D0929D01E0928C
:1003E0009E01F0929F0120E03EE34CE956EC6091C3
:1003F0009C0170919D0180919E0190919F010E94AE
:10040000FE0687FF0CC080E09EE3ACE9B6EC80936B
:100410009C0190939D01A0939E01B0939F017894BD
:10042000FF91EF91BF91AF919F918F917F916F91CC
:100430005F914F913F912F91FF90EF90DF90CF9080
:10044000BF90AF909F908F907F906F905F904F90F4
:100450000F900FBE0F901F90189580E09EE3ACE9BF
:10046000B6E480939C0190939D01A0939E01B0936C
:100470009F01B9CFCF93DF93CDB7DEB7CF54D1096A
:100480000FB6F894DEBF0FBECDBF8AE090E0609655
:100490009FAF8EAF609789E0E5E5F1E0DE01AB5BF1
:1004A000BF4F01900D928A95E1F786E2EEE5F1E00B
:1004B000DE01119601900D928A95E1F71092B90034
:1004C0008FEF8093B8008BE792E90197F1F700C0B6
:1004D00000000E94FA0089E10E94DC0087E00E948F
:1004E000DC000E94F2000E94FA008BE60E94DC0011
:1004F00081E00E94DC000E94F2000E94FA008AE182
:100500000E94DC0080E00E94DC000E94F2000E9459
:10051000FA008BE10E94DC0088E10E94DC000E946E
:10052000F2000E94FA0088E30E94DC0081E00E9451
:10053000DC000E94F2008091C10088618093C100BC
:100540008091C20086608093C2008CE08093C400DA
:100550001092C50084B1866084B982EA80938000DD
:100560008AE18093810010926F00109289001092AE
:10057000880010928B0010928A008FE19EE4909385
:10058000870080938600CE01825B9F4F0E94D0003F
:10059000CE0101960E94D0006E019BE3C90ED11CD2
:1005A000860122E043E06EED7EE184E09DE30E945F
:1005B0000504DF92CF9280E091E09F938F937E01BC
:1005C00027E2E20EF11CFF92EF920E94CF08C701D2
:1005D0000E94D000CE018B5B9F4F0E94D00022E092
:1005E00043E060E074E284E795E40E940504DF9252
:1005F000CF9289E091E09F938F93FF92EF920E94B8
:10060000CF08C7010E94D000CE018B5B9F4F0E9494
:10061000D00022E043E060E074E284E799E40E94C5
:100620000504DF92CF9287E191E09F938F93FF9231
:10063000EF920E94CF08C7010E94D000CE018B5BD1
:100640009F4F0E94D000CE01825B9F4F0E94D0003E
:1006500014BC88E085BD8DE787BD85B5846085BD08
:1006600080916E00826080936E0078940FB6F8944B
:10067000DEBF0FBECDBF83E2682E81E0782E94E30B
:10068000892E91E0992E2DE3A22E21E0B22E20900A
:100690009C0130909D0140909E0150909F01C201AD
:1006A000B1010E947507161617064CF47093890065
:1006B0006093880010928B0010928A000EC01092F6
:1006C00089001092880061157105A1F371956195FB
:1006D000710970938B0060938A00860122E043E0E9
:1006E000C201B1010E940504DF92CF927F926F9206
:1006F000FF92EF920E94CF08C7010E94D000609144
:1007000098017091990180919A0190919B0123E346
:1007100033E343E851E40E94030722E043E00E94F0
:100720000504DF92CF929F928F92FF92EF920E94E8
:10073000CF08C7010E94D000CE01825B9F4F0E946C
:10074000D0006091940170919501809196019091F3
:10075000970122E043E00E940504DF92CF92BF920E
:10076000AF92FF92EF920E94CF08C7010E94D00083
:10077000CE018B5B9F4F0E94D000609190017091E1
:100780009101809192019091930122E043E00E94B7
:100790000504DF92CF9285E491E09F938F93FF92BF
:1007A000EF920E94CF08C7010E94D000CE018B5B60
:1007B0009F4F0E94D00060918C0170918D018091BB
:1007C0008E0190918F0122E043E00E940504DF92A8
:1007D000CF928DE491E09F938F93FF92EF920E94CE
:1007E000CF08C7010E94D000CE01825B9F4F0E94BC
:1007F000D00087EA91E60197F1F700C000000FB63C
:10080000F894DEBF0FBECDBF42CFEF920F931F9380
:10081000CF93DF93E80134E047FD34E1042E000C70
:10082000550B57FF03C0519541955109E32E022FF7
:10083000242FAE010E942304CE01DF91CF911F919E
:100840000F91EF900895A9E0B0E0E9E2F4E00C9494
:1008500060066A01F22EB02E102FFBE3AF2EA01619
:1008600008F41BE31F5F012F27E0AE014F5F5F4FCE
:100870000E948205BC018981982F9970913009F4FA
:100880003FC09BE2E1FC04C09E2D9170E0FC3AC0A9
:100890005E2D5071E82FE87083FF46C084E091110F
:1008A00001C083E0EF2DE81B8F1508F0E0E0D601D2
:1008B0008E2F20E2552351F1992329F0D6019C93E4
:1008C000C60101966C0196012D5F3F4FE2FE24C0E8
:1008D0008EE4D6018C9391E411969C931197129615
:1008E0008C93D9018E2F90E281111BC0E20FF32F60
:1008F000F11D10828EEF9FEF2996ECE00C947C06A0
:100900009DE2C6CF90E2C4CF2D9381508111FCCFE0
:10091000CE0ED11CE0E0D0CF8EE6D6018C9391E6CE
:10092000DBCF9D938150E0CF482F447082FF3DC0C4
:1009300084E0911101C083E08F1510F4EF2DE81BC6
:10094000D6018E2F20E2552309F1992329F0D601F3
:100950009C93C60101966C0196012D5F3F4FE2FE0C
:100960001BC089E4D6018C938EE411968C93119769
:1009700086E412968C93D9018E2F90E2882309F495
:10098000B5CF9D938150FACF2D9381508111FCCF2B
:10099000CE0ED11CE0E0D9CF89E6D6018C938EE64D
:1009A00011968C93119786E6E4CF9B0177FF02C0E6
:1009B00030E020E0A1E0B0E0911102C0B0E0A0E0A2
:1009C000F9013196AE0FBF1F8B2C912CBB2009F47F
:1009D00061C05401EFEFAE1ABE0AAA0DBB1DFA1694
:1009E0001B0619F014F04F2D4A1B511188C0E3FC6F
:1009F00059C07601A42FB0E2A1114FC0C40ED11C82
:100A0000992309F45BC040E0D6011196F60190836A
:100A10006D01552309F448C0012F060F9A81582F04
:100A2000507184FF03C0913309F4015010160CF08B
:100A300047C0093008F008E0EEE2FE2E5B01A01A84
:100A4000B10885019194819491082F3F320729F4D0
:100A5000D601FC92F60131966F016217730794F18B
:100A6000021713077CF5DB01A21BB30BAA24A39486
:100A7000B12CAC0EBD1EAA0DBB1D11968C91215040
:100A80003109D601119628153905F4F0F601808355
:100A90006D01DBCFB12CA12CA0CFF701B1937F0169
:100AA000A150AACF9111B0CFD601942F50E302C02C
:100AB0005D9391509111FCCFC40ED11C40E0ACCF9E
:100AC00001E0BACF80E3DBCF6217730731F49633CE
:100AD00088F4953311F4552369F0F6018083FD0104
:100AE000842F90E2811108C0A40FB11D1C9290E0E8
:100AF00080E002CF81E3F1CF91938150F3CF911148
:100B000083CF8ACF283008F027E03327DA01990F06
:100B1000311D87FD916000966105710539F43260E1
:100B20002E5F3D9330E32A95E1F708959F3F30F023
:100B300080387105610509F03C5F3C5F3D93913061
:100B400008F08068911DDF93CF931F930F93FF925E
:100B5000EF92192F987F9695E92F96959695E90F24
:100B6000FF27EE53FF4F99273327EE24FF24A701D9
:100B7000E70105900894079428F4360FE71EF81E45
:100B8000491F511D660F771F881F991F0694A1F7F3
:100B90000590079428F4E70EF81E491F561FC11D43
:100BA000770F881F991F661F0694A1F70590079479
:100BB00028F4F80E491F561FC71FD11D880F991F13
:100BC000661F771F0694A1F70590079420F4490F3C
:100BD000561FC71FD81F990F661F771F881F0694BF
:100BE000A9F784911095177041F0D695C795579540
:100BF0004795F794E7941A95C1F7E8E6F0E0689412
:100C00001590159135916591959105907FE27395B9
:100C1000E118F10A430B560BC90BD009C0F7E10CE0
:100C2000F11E431F561FC91FD01D7EF4703311F4EF
:100C30008A95E6CFE894015030F0080F0AF40027B7
:100C4000021708F4202F2395022F7A3328F079E336
:100C50007D932A95E9F710C07D932A9589F606942D
:100C600097956795379517951794E118F10A430BF7
:100C7000560BC90BD00998F023957E9173957A3362
:100C800008F070E37C932013B8F77E9170617D9338
:100C900030F0839571E37D9370E32A95E1F7112499
:100CA000EF90FF900F911F91CF91DF91992787FDD2
:100CB000909508952F923F924F925F926F927F92FC
:100CC0008F929F92AF92BF92CF92DF92EF92FF925C
:100CD0000F931F93CF93DF93CDB7DEB7CA1BDB0B08
:100CE0000FB6F894DEBF0FBECDBF09942A883988AD
:100CF00048885F846E847D848C849B84AA84B984B4
:100D0000C884DF80EE80FD800C811B81AA81B981BF
:100D1000CE0FD11D0FB6F894DEBF0FBECDBFED01D3
:100D200008955058BB27AA270E94A9060C942308AF
:100D30000E94150838F00E941C0820F039F49F3FEB
:100D400019F426F40C9412080EF4E095E7FB0C94C9
:100D50000C08E92F0E94340858F3BA17620773078A
:100D60008407950720F079F4A6F50C9456080EF444
:100D7000E0950B2EBA2FA02D0B01B90190010C01AB
:100D8000CA01A0011124FF27591B99F0593F50F4C3
:100D9000503E68F11A16F040A22F232F342F44271B
:100DA000585FF3CF469537952795A795F040539513
:100DB000C9F77EF41F16BA0B620B730B840BBAF0E3
:100DC0009150A1F0FF0FBB1F661F771F881FC2F74E
:100DD0000EC0BA0F621F731F841F48F48795779562
:100DE0006795B795F7959E3F08F0B0CF9395880F1C
:100DF00008F09927EE0F9795879508950E94E807C8
:100E000008F481E008950E9417070C9423080E94BB
:100E10001C0858F00E94150840F029F45F3F29F0A3
:100E20000C940C0851110C9457080C9412080E9451
:100E3000340868F39923B1F3552391F3951B550BAF
:100E4000BB27AA2762177307840738F09F5F5F4F9D
:100E5000220F331F441FAA1FA9F335D00E2E3AF0DC
:100E6000E0E832D091505040E695001CCAF72BD0F4
:100E7000FE2F29D0660F771F881FBB1F2617370745
:100E80004807AB07B0E809F0BB0B802DBF01FF2777
:100E900093585F4F3AF09E3F510578F00C940C0840
:100EA0000C9457085F3FE4F3983ED4F3869577950A
:100EB0006795B795F7959F5FC9F7880F911D969530
:100EC000879597F90895E1E0660F771F881FBB1F8C
:100ED000621773078407BA0720F0621B730B840B39
:100EE000BA0BEE1F88F7E09508950E947C0768947E
:100EF000B1110C94570808950E943C0888F09F5740
:100F000098F0B92F9927B751B0F0E1F0660F771F2D
:100F1000881F991F1AF0BA95C9F714C0B13091F023
:100F20000E945608B1E008950C945608672F782F58
:100F30008827B85F39F0B93FCCF3869577956795E8
:100F4000B395D9F73EF490958095709561957F4F54
:100F50008F4F9F4F0895E89409C097FB3EF49095FA
:100F60008095709561957F4F8F4F9F4F9923A9F082
:100F7000F92F96E9BB279395F69587957795679511
:100F8000B795F111F8CFFAF4BB0F11F460FF1BC055
:100F90006F5F7F4F8F4F9F4F16C0882311F096E9E8
:100FA00011C0772321F09EE8872F762F05C0662396
:100FB00071F096E8862F70E060E02AF09A95660F4F
:100FC000771F881FDAF7880F9695879597F9089508
:100FD000990F0008550FAA0BE0E8FEEF161617064A
:100FE000E807F907C0F012161306E407F50798F0B2
:100FF000621B730B840B950B39F40A2661F0232BCB
:10100000242B252B21F408950A2609F4A140A69546
:101010008FEF811D811D089597F99F6780E870E02B
:1010200060E008959FEF80EC089500240A9416165E
:10103000170618060906089500240A9412161306C6
:10104000140605060895092E0394000C11F4882354
:1010500052F0BB0F40F4BF2B11F460FF04C06F5F70
:101060007F4F8F4F9F4F089557FD9058440F551F46
:1010700059F05F3F71F04795880F97FB991F61F01A
:101080009F3F79F087950895121613061406551F91
:10109000F2CF4695F1DF08C0161617061806991FFD
:1010A000F1CF86957105610508940895E894BB27F2
:1010B00066277727CB0197F908950E94E80708F47F
:1010C0008FEF08950E9475080C9423080E9415085C
:1010D00038F00E941C0820F0952311F00C940C08A5
:1010E0000C94120811240C9457080E94340870F3D1
:1010F000959FC1F3950F50E0551F629FF001729FBD
:10110000BB27F00DB11D639FAA27F00DB11DAA1FCB
:10111000649F6627B00DA11D661F829F2227B00D18
:10112000A11D621F739FB00DA11D621F839FA00DA3
:10113000611D221F749F3327A00D611D231F849FF3
:10114000600D211D822F762F6A2F11249F5750404A
:101150009AF0F1F088234AF0EE0FFF1FBB1F661FC5
:10116000771F881F91505040A9F79E3F510580F08E
:101170000C940C080C9457085F3FE4F3983ED4F3AA
:10118000869577956795B795F795E7959F5FC1F732
:10119000FE2B880F911D9695879597F90895AEE0DF
:1011A000B0E0E5EDF8E00C9468060D891E8986E054
:1011B0008C831A8309838FEF9FE79E838D83AE0113
:1011C000475E5F4F6F89788DCE0101960E94F208CD
:1011D0002F813885020F131FF80110822E96E4E04C
:1011E0000C948406ABE0B0E0E8EFF8E00C945A060B
:1011F0007C013B018A01FC0117821682838181FFF9
:10120000C8C1CE0101965C01F7019381F30193FD02
:10121000859193FF81913F01882309F453C1853261
:1012200039F493FD859193FF81913F01853229F433
:10123000B70190E00E94E20AE7CF912C212C312CDB
:10124000FFE1F31538F08B3211F190F4803209F19F
:10125000833229F137FC3CC020ED280F2A3050F5AD
:1012600036FE20C08AE0989E200D1124922E06C0E2
:101270008D3291F0803371F7689430F8F30193FD6B
:10128000859193FF81913F018111DACF21C068944C
:1012900031F8689432F8F2CF689433F8EFCF68945D
:1012A00034F8ECCFEAE02E9E200D1124222E689413
:1012B00035F8E4CF8E3229F436FC04C1689436F850
:1012C000DDCF8C3619F4689437F8D8CF8836B1F270
:1012D000982F9F7D95549330E0F08336A1F18337AA
:1012E000C1F1833509F063C02801F2E04F0E511CB3
:1012F000F801C080D180692D70E036FC02C06FEF2C
:101300007FEFC6010E94CC0A4C01689437F8820135
:101310000AC00C5F1F4FFFE3F98388248394912C4C
:101320006501E89437F833FE2DC0522C81149104E6
:1013300071F5552009F468CFB70180E290E00E9472
:10134000E20A5A94F6CFF801808189830E5F1F4F1D
:10135000E4CF2801F2E04F0E511CF801C080D1808B
:10136000692D70E036FC02C06FEF7FEFC6010E946E
:10137000D70A4C018201D5CFB70180E290E00E94EC
:10138000E20A2A942814190409F0B0F7CECFF60126
:1013900037FC859137FE81916F01B70190E00E9483
:1013A000E20A51105A94F1E08F1A9108BFCF8436A7
:1013B00019F0893609F077C0F80137FE6BC06081FB
:1013C0007181828193810C5F1F4FF32DFF763F2E39
:1013D00097FF09C090958095709561957F4F8F4FCD
:1013E0009F4F689437F82AE030E0A5010E94120B65
:1013F000C82ECA188C2C432C36FE0CC0E89440F83A
:10140000C91440F434FE05C032FC03C0F32DFE7E47
:101410004F2E892C44FE95C0FE01EC0DF11D8081FC
:10142000803309F087C0242D297E422E842D8870B8
:10143000582E43FC95C040FE8FC09C2C821418F49B
:101440002C0C922C981844FE91C0B70180E390E0D8
:101450000E94E20A42FE09C088E790E041FE02C015
:1014600088E590E0B7010E94E20AC91408F48AC036
:10147000CA94D12C9FEFC91AD90ACA0CDB1CF601F9
:1014800082916F01B70190E00E94E20AAC14BD04A2
:10149000B1F74FCF60817181072E000C880B990B3B
:1014A0000E5F1F4F92CFD32CE894D4F82AE030E09F
:1014B000853739F1232D297FD22E8F3601F148F45B
:1014C0008835A9F0F701868197812B96E2E10C948B
:1014D0007606803749F08837A9F7D4FE02C06894B1
:1014E000D2F820E130E00DC06894D4F8F6CF34FE95
:1014F00003C0822F8660D82E20E132E002C028E0AF
:1015000030E0F801D7FE0FC0608171818281938144
:101510000C5F1F4FA5010E94120BC82ECA183D2C4C
:10152000E89437F867CF6081718190E080E00E5FCA
:101530001F4FF0CF42FC02C0839478CF83948394F2
:1015400075CF842D867809F471CFF6CFB70180E28C
:1015500090E00E94E20A83948214C0F3512C73CF6E
:10156000522C5818821408F46ECFF8CF842D867848
:1015700009F47BCF8BE241FE80E247FC8DE2B701AC
:1015800090E071CFB70180E390E00E94E20A9A9464
:101590006CCF8FEF9FEF99CFFC01059061507040A9
:1015A0000110D8F7809590958E0F9F1F0895FC012C
:1015B0006150704001900110D8F7809590958E0F82
:1015C0009F1F08950F931F93CF93DF93182F092F19
:1015D000EB018B8181FD09C01FEF0FEF812F902F51
:1015E000DF91CF911F910F91089582FF14C02E813A
:1015F0003F818C819D81281739073CF4E881F9816E
:10160000CF0101969983888310838E819F810196F3
:101610009F838E83E3CFE885F985812F0995892BF8
:10162000A1F3DACFFA01AA27283051F1203181F154
:10163000E8946F936E7F6E5F7F4F8F4F9F4FAF4FDA
:10164000B1E03ED0B4E03CD0670F781F891F9A1FED
:10165000A11D680F791F8A1F911DA11D6A0F711DA1
:10166000811D911DA11D20D009F468943F912AE0AD
:10167000269F11243019305D3193DEF6CF01089595
:10168000462F4770405D4193B3E00FD0C9F7F6CFC6
:10169000462F4F70405D4A3318F0495D31FD40528E
:1016A000419302D0A9F7EACFB4E0A6959795879524
:1016B00077956795BA95C9F7009761057105089503
:1016C0009B01AC010A2E06945795479537952795AF
:1016D000BA95C9F7620F731F841F951FA01D089547
:0416E000F894FFCFAC
:1016E400206474203D2025730020665F74696D6555
:1016F40072203D2025730020465F435055203D2035
:1017040025730020504944206F7574707574203D12
:10171400202573002058203D2025730A00205020E6
:101724003D202573002049203D20257300204420BE
:101734003D202573002020202020202020000A0A9C
:10174400202D2D2D2D2D2D2D2D20696E69742063B6
:101754006F6D706C657465202D2D2D2D2D2D2D2D07
:04176400200A0A004D
:00000001FF
