:100000000C9434000C943E000C943E000C943E0082
:100010000C943E000C943E000C943E000C943E0068
:100020000C943E000C943E000C943E000C943E0058
:100030000C943E000C943E000C943E000C943E0048
:100040000C943E000C943E000C943E000C943E0038
:100050000C943E000C943E000C943E000C943E0028
:100060000C943E000C943E0011241FBECFEFD8E04C
:10007000DEBFCDBF0E9440000C948F000C940000A6
:1000800084B1866084B982EA809380008AE180939B
:10009000810010926F0010928900109288001092D7
:1000A0008B0010928A008FE19EE4909387008093EA
:1000B000860080E49FE110928900109288001092DF
:1000C0008B0010928A002FE33DE043E02150304046
:1000D0004040E1F700C000009093890080938800C1
:1000E00010928B0010928A002FE33DE043E02150F4
:1000F00030404040E1F700C00000109289001092AB
:10010000880090938B0080938A002FE33DE043E0CA
:10011000215030404040E1F700C00000CCCFF894BF
:02012000FFCF0F
:00000001FF
