:100000000C9434000C943E000C943E000C943E0082
:100010000C943E000C943E000C943E000C943E0068
:100020000C943E000C943E000C943E000C943E0058
:100030000C943E000C943E000C943E000C943E0048
:100040000C943E000C943E000C943E000C943E0038
:100050000C943E000C943E000C943E000C943E0028
:100060000C943E000C943E0011241FBECFEFD8E04C
:10007000DEBFCDBF0E9440000C9486000C940000AF
:1000800084B1866084B982EA809380008AE180939B
:10009000810010926F0010928900109288001092D7
:1000A0008B0010928A008FE19EE4909387008093EA
:1000B000860088E39AE410928900109288001092DA
:1000C0008B0010928A009093890080938800109290
:1000D0008B0010928A002FE332E44FE02150304031
:1000E0004040E1F700C000001092890010928800A3
:1000F00090938B0080938A002FE332E44FE02150ED
:1001000030404040E1F700C00000D5CFF894FFCF69
:00000001FF
